{
  "contractName": "SimpleStorage",
  "abi": [
    {
      "constant": true,
      "inputs": [],
      "name": "storedData",
      "outputs": [
        {
          "name": "",
          "type": "uint256"
        }
      ],
      "payable": false,
      "stateMutability": "view",
      "type": "function"
    },
    {
      "anonymous": false,
      "inputs": [
        {
          "indexed": false,
          "name": "name",
          "type": "string"
        }
      ],
      "name": "testEvent",
      "type": "event"
    },
    {
      "constant": false,
      "inputs": [
        {
          "name": "x",
          "type": "uint256"
        }
      ],
      "name": "set",
      "outputs": [],
      "payable": false,
      "stateMutability": "nonpayable",
      "type": "function"
    },
    {
      "constant": true,
      "inputs": [],
      "name": "get",
      "outputs": [
        {
          "name": "retVal",
          "type": "uint256"
        }
      ],
      "payable": false,
      "stateMutability": "view",
      "type": "function"
    }
  ],
  "bytecode": "0x608060405234801561001057600080fd5b5061014e806100206000396000f3006080604052600436106100565763ffffffff7c01000000000000000000000000000000000000000000000000000000006000350416632a1afcd9811461005b57806360fe47b1146100825780636d4ce63c1461009c575b600080fd5b34801561006757600080fd5b506100706100b1565b60408051918252519081900360200190f35b34801561008e57600080fd5b5061009a6004356100b7565b005b3480156100a857600080fd5b5061007061011c565b60005481565b6040805160208082526012908201527f31313131313131313131313131313131313100000000000000000000000000008183015290517f4c2aaf95bd72b0b4730a09397fa14d7c339e8b90471d39e1ec89baed0628ed249181900360600190a1600055565b600054905600a165627a7a723058201d101a8f8b517e729a3ef5ef4073bdbcfa8755899b2102544a07cc8b7bb0bab50029",
  "source": "pragma solidity ^0.4.24;\n\ncontract SimpleStorage {\n    uint public storedData;\n\n    event testEvent(string name);\n\n    function set(uint x) public {\n        emit testEvent(\"111111111111111111\");\n        storedData = x;\n    }\n\n    function get() public constant returns (uint retVal) {\n        return storedData;\n    }\n}\n",
  "sourcePath": "/home/lyc/Desktop/insee/test/sweb3/samples/contracts/SimpleStorage.sol",
  "compiler": {
    "name": "solc",
    "version": "0.4.24+commit.e67f0147.Emscripten.clang"
  },
  "schemaVersion": "2.0.1",
  "updatedAt": "2018-12-20T09:54:05.980Z"
}